{
  "_format": "hh-sol-artifact-1",
  "contractName": "Dcube",
  "sourceName": "contracts/Dcube.sol",
  "abi": [
    {
      "anonymous": false,
      "inputs": [
        {
          "indexed": true,
          "internalType": "address",
          "name": "User",
          "type": "address"
        },
        {
          "indexed": true,
          "internalType": "string",
          "name": "CID",
          "type": "string"
        },
        {
          "indexed": false,
          "internalType": "uint256",
          "name": "TimeStamp",
          "type": "uint256"
        },
        {
          "indexed": false,
          "internalType": "string",
          "name": "FileName",
          "type": "string"
        }
      ],
      "name": "CidGenerate",
      "type": "event"
    },
    {
      "inputs": [],
      "name": "getUploadFile",
      "outputs": [
        {
          "components": [
            {
              "internalType": "string",
              "name": "CID",
              "type": "string"
            },
            {
              "internalType": "uint256",
              "name": "timeStamp",
              "type": "uint256"
            },
            {
              "internalType": "string",
              "name": "fileName",
              "type": "string"
            }
          ],
          "internalType": "struct Dcube.uploadedFile[]",
          "name": "",
          "type": "tuple[]"
        }
      ],
      "stateMutability": "view",
      "type": "function"
    },
    {
      "inputs": [
        {
          "internalType": "string",
          "name": "_cid",
          "type": "string"
        },
        {
          "internalType": "string",
          "name": "_fileName",
          "type": "string"
        }
      ],
      "name": "uploadfile",
      "outputs": [
        {
          "internalType": "bool",
          "name": "",
          "type": "bool"
        }
      ],
      "stateMutability": "nonpayable",
      "type": "function"
    }
  ],
  "bytecode": "0x608060405234801561001057600080fd5b50610e09806100206000396000f3fe608060405234801561001057600080fd5b50600436106100365760003560e01c80639d5cb9bf1461003b578063dd807f2814610059575b600080fd5b610043610089565b6040516100509190610700565b60405180910390f35b610073600480360381019061006e91906108cb565b61032d565b6040516100809190610962565b60405180910390f35b60606000600160003373ffffffffffffffffffffffffffffffffffffffff1673ffffffffffffffffffffffffffffffffffffffff1681526020019081526020016000205467ffffffffffffffff8111156100e6576100e56107a0565b5b60405190808252806020026020018201604052801561011f57816020015b61010c61051d565b8152602001906001900390816101045790505b50905060005b600160003373ffffffffffffffffffffffffffffffffffffffff1673ffffffffffffffffffffffffffffffffffffffff16815260200190815260200160002054811015610325576000803373ffffffffffffffffffffffffffffffffffffffff1673ffffffffffffffffffffffffffffffffffffffff16815260200190815260200160002060008281526020019081526020016000206040518060600160405290816000820180546101d6906109ac565b80601f0160208091040260200160405190810160405280929190818152602001828054610202906109ac565b801561024f5780601f106102245761010080835404028352916020019161024f565b820191906000526020600020905b81548152906001019060200180831161023257829003601f168201915b5050505050815260200160018201548152602001600282018054610272906109ac565b80601f016020809104026020016040519081016040528092919081815260200182805461029e906109ac565b80156102eb5780601f106102c0576101008083540402835291602001916102eb565b820191906000526020600020905b8154815290600101906020018083116102ce57829003601f168201915b505050505081525050828281518110610307576103066109dd565b5b6020026020010181905250808061031d90610a3b565b915050610125565b508091505090565b6000604051806060016040528085858080601f016020809104026020016040519081016040528093929190818152602001838380828437600081840152601f19601f820116905080830192505050505050508152602001428152602001838152506000803373ffffffffffffffffffffffffffffffffffffffff1673ffffffffffffffffffffffffffffffffffffffff1681526020019081526020016000206000600160003373ffffffffffffffffffffffffffffffffffffffff1673ffffffffffffffffffffffffffffffffffffffff16815260200190815260200160002054815260200190815260200160002060008201518160000190816104319190610c2f565b506020820151816001015560408201518160020190816104519190610c2f565b50905050600160003373ffffffffffffffffffffffffffffffffffffffff1673ffffffffffffffffffffffffffffffffffffffff16815260200190815260200160002060008154809291906104a590610a3b565b919050555083836040516104ba929190610d31565b60405180910390203373ffffffffffffffffffffffffffffffffffffffff167f638b7d12e3815c330fbd5a3548bee1b344579978da99e57f4d20c707bfeebcb3428560405161050a929190610da3565b60405180910390a3600190509392505050565b60405180606001604052806060815260200160008152602001606081525090565b600081519050919050565b600082825260208201905092915050565b6000819050602082019050919050565b600081519050919050565b600082825260208201905092915050565b60005b838110156105a4578082015181840152602081019050610589565b60008484015250505050565b6000601f19601f8301169050919050565b60006105cc8261056a565b6105d68185610575565b93506105e6818560208601610586565b6105ef816105b0565b840191505092915050565b6000819050919050565b61060d816105fa565b82525050565b6000606083016000830151848203600086015261063082826105c1565b91505060208301516106456020860182610604565b506040830151848203604086015261065d82826105c1565b9150508091505092915050565b60006106768383610613565b905092915050565b6000602082019050919050565b60006106968261053e565b6106a08185610549565b9350836020820285016106b28561055a565b8060005b858110156106ee57848403895281516106cf858261066a565b94506106da8361067e565b925060208a019950506001810190506106b6565b50829750879550505050505092915050565b6000602082019050818103600083015261071a818461068b565b905092915050565b6000604051905090565b600080fd5b600080fd5b600080fd5b600080fd5b600080fd5b60008083601f84011261075b5761075a610736565b5b8235905067ffffffffffffffff8111156107785761077761073b565b5b60208301915083600182028301111561079457610793610740565b5b9250929050565b600080fd5b7f4e487b7100000000000000000000000000000000000000000000000000000000600052604160045260246000fd5b6107d8826105b0565b810181811067ffffffffffffffff821117156107f7576107f66107a0565b5b80604052505050565b600061080a610722565b905061081682826107cf565b919050565b600067ffffffffffffffff821115610836576108356107a0565b5b61083f826105b0565b9050602081019050919050565b82818337600083830152505050565b600061086e6108698461081b565b610800565b90508281526020810184848401111561088a5761088961079b565b5b61089584828561084c565b509392505050565b600082601f8301126108b2576108b1610736565b5b81356108c284826020860161085b565b91505092915050565b6000806000604084860312156108e4576108e361072c565b5b600084013567ffffffffffffffff81111561090257610901610731565b5b61090e86828701610745565b9350935050602084013567ffffffffffffffff81111561093157610930610731565b5b61093d8682870161089d565b9150509250925092565b60008115159050919050565b61095c81610947565b82525050565b60006020820190506109776000830184610953565b92915050565b7f4e487b7100000000000000000000000000000000000000000000000000000000600052602260045260246000fd5b600060028204905060018216806109c457607f821691505b6020821081036109d7576109d661097d565b5b50919050565b7f4e487b7100000000000000000000000000000000000000000000000000000000600052603260045260246000fd5b7f4e487b7100000000000000000000000000000000000000000000000000000000600052601160045260246000fd5b6000610a46826105fa565b91507fffffffffffffffffffffffffffffffffffffffffffffffffffffffffffffffff8203610a7857610a77610a0c565b5b600182019050919050565b60008190508160005260206000209050919050565b60006020601f8301049050919050565b600082821b905092915050565b600060088302610ae57fffffffffffffffffffffffffffffffffffffffffffffffffffffffffffffffff82610aa8565b610aef8683610aa8565b95508019841693508086168417925050509392505050565b6000819050919050565b6000610b2c610b27610b22846105fa565b610b07565b6105fa565b9050919050565b6000819050919050565b610b4683610b11565b610b5a610b5282610b33565b848454610ab5565b825550505050565b600090565b610b6f610b62565b610b7a818484610b3d565b505050565b5b81811015610b9e57610b93600082610b67565b600181019050610b80565b5050565b601f821115610be357610bb481610a83565b610bbd84610a98565b81016020851015610bcc578190505b610be0610bd885610a98565b830182610b7f565b50505b505050565b600082821c905092915050565b6000610c0660001984600802610be8565b1980831691505092915050565b6000610c1f8383610bf5565b9150826002028217905092915050565b610c388261056a565b67ffffffffffffffff811115610c5157610c506107a0565b5b610c5b82546109ac565b610c66828285610ba2565b600060209050601f831160018114610c995760008415610c87578287015190505b610c918582610c13565b865550610cf9565b601f198416610ca786610a83565b60005b82811015610ccf57848901518255600182019150602085019450602081019050610caa565b86831015610cec5784890151610ce8601f891682610bf5565b8355505b6001600288020188555050505b505050505050565b600081905092915050565b6000610d188385610d01565b9350610d2583858461084c565b82840190509392505050565b6000610d3e828486610d0c565b91508190509392505050565b610d53816105fa565b82525050565b600082825260208201905092915050565b6000610d758261056a565b610d7f8185610d59565b9350610d8f818560208601610586565b610d98816105b0565b840191505092915050565b6000604082019050610db86000830185610d4a565b8181036020830152610dca8184610d6a565b9050939250505056fea26469706673582212200f8bec43fb706460bd5bbeba77cd63988c8a1e556d86c5f53b7ef9b9944e597f64736f6c63430008110033",
  "linkReferences": {},
  "deployedLinkReferences": {}
}