{
  "_format": "hh-sol-artifact-1",
  "contractName": "Owner",
  "sourceName": "contracts/Dcube.sol",
  "abi": [
    {
      "inputs": [],
      "stateMutability": "nonpayable",
      "type": "constructor"
    },
    {
      "anonymous": false,
      "inputs": [
        {
          "indexed": false,
          "internalType": "address",
          "name": "_previousOwner",
          "type": "address"
        },
        {
          "indexed": false,
          "internalType": "address",
          "name": "_newOwner",
          "type": "address"
        }
      ],
      "name": "OwnershipTransferred",
      "type": "event"
    },
    {
      "inputs": [],
      "name": "renounceOwnership",
      "outputs": [
        {
          "internalType": "bool",
          "name": "",
          "type": "bool"
        }
      ],
      "stateMutability": "nonpayable",
      "type": "function"
    },
    {
      "inputs": [
        {
          "internalType": "address",
          "name": "_newOwner",
          "type": "address"
        }
      ],
      "name": "transferOwnership",
      "outputs": [
        {
          "internalType": "bool",
          "name": "",
          "type": "bool"
        }
      ],
      "stateMutability": "nonpayable",
      "type": "function"
    }
  ],
  "bytecode": "0x608060405234801561001057600080fd5b50336000806101000a81548173ffffffffffffffffffffffffffffffffffffffff021916908373ffffffffffffffffffffffffffffffffffffffff1602179055507f8be0079c531659141344cd1fd0a4f28419497f9722a3daafe3b4186f6b6457e060008060009054906101000a900473ffffffffffffffffffffffffffffffffffffffff166040516100a49291906100f2565b60405180910390a161011b565b600073ffffffffffffffffffffffffffffffffffffffff82169050919050565b60006100dc826100b1565b9050919050565b6100ec816100d1565b82525050565b600060408201905061010760008301856100e3565b61011460208301846100e3565b9392505050565b6103278061012a6000396000f3fe608060405234801561001057600080fd5b50600436106100365760003560e01c8063715018a61461003b578063f2fde38b14610059575b600080fd5b610043610089565b604051610050919061020e565b60405180910390f35b610073600480360381019061006e919061028c565b6100f6565b604051610080919061020e565b60405180910390f35b60008060009054906101000a900473ffffffffffffffffffffffffffffffffffffffff1673ffffffffffffffffffffffffffffffffffffffff163373ffffffffffffffffffffffffffffffffffffffff16146100e457600080fd5b6100ee60006100f6565b506001905090565b60008060009054906101000a900473ffffffffffffffffffffffffffffffffffffffff1673ffffffffffffffffffffffffffffffffffffffff163373ffffffffffffffffffffffffffffffffffffffff161461015157600080fd5b816000806101000a81548173ffffffffffffffffffffffffffffffffffffffff021916908373ffffffffffffffffffffffffffffffffffffffff1602179055507f8be0079c531659141344cd1fd0a4f28419497f9722a3daafe3b4186f6b6457e060008054906101000a900473ffffffffffffffffffffffffffffffffffffffff16836040516101e29291906102c8565b60405180910390a160019050919050565b60008115159050919050565b610208816101f3565b82525050565b600060208201905061022360008301846101ff565b92915050565b600080fd5b600073ffffffffffffffffffffffffffffffffffffffff82169050919050565b60006102598261022e565b9050919050565b6102698161024e565b811461027457600080fd5b50565b60008135905061028681610260565b92915050565b6000602082840312156102a2576102a1610229565b5b60006102b084828501610277565b91505092915050565b6102c28161024e565b82525050565b60006040820190506102dd60008301856102b9565b6102ea60208301846102b9565b939250505056fea26469706673582212203b157ab045f92a772849de220f03a2d5ee8b206b10b96f7626dd6c542b2f04e864736f6c63430008110033",
  "linkReferences": {},
  "deployedLinkReferences": {}
}